:020000040000FA
:1000000068020020D5000000FB000000FD00000099
:1000100000000000000000000000000000000000E0
:100020000000000000000000000000000D010000C2
:1000300000000000000000000F010000110100009E
:100040001301000013010000130100001301000060
:100050001301000013010000130100001301000050
:100060001301000013010000130100001301000040
:100070001301000013010000130100001301000030
:100080001301000013010000130100001301000020
:100090001301000013010000130100001301000010
:1000A0001301000013010000130100001301000000
:1000B00013010000130100001301000013010000F0
:1000C0000348854600F066F8004800473107000005
:1000D0006802002013481449016014490160144962
:1000E0000160144A14491160144A15491160002135
:1000F00001601448804714480047FEE77046EFF35C
:100100000881EFF30982114B98470047FEE7FEE7AD
:10011000FEE7FEE7ABBE0E4B08B5984708BD70463C
:10012000F0470000000100405900000016000000E8
:100130008800000024000040A55A00008002004012
:10014000010000004D050000C10000008D0300000B
:10015000CD03000070B50446002903D00020202202
:10016000012310E0002801D00020C043C046C04653
:100170000DE02546D5408D4205D30D469540641BC4
:100180001D46954040191546521E002DF1DC2146B2
:1001900070BD00001CB50948009009480190054653
:1001A0000126009C05E0E36807CC33430C3C9847EC
:1001B0001034AC42F7D3FFF787FF0000E0070000E0
:1001C000000800001F21014001228A40800F8000AA
:1001D0000349085803494358134343507047C046E6
:1001E0009807000004020040EE490A6802430A60D2
:1001F0007047C04680B500F057F90A4800680721EB
:100200000140CE480068C84080BDC04680B500F0BF
:100210004BF904480168C94800684906490FC840BD
:1002200080BDC04634020040F0B583B00290564A0B
:1002300013681446503C256804200190054325604E
:10024000504D0020286010261E40BC4B1B685B08E8
:100250001568ED0612D4012B13D017680125FF068F
:100260000DD4022B0DD01768FF0608D4032B08D03D
:100270001768FF0603D41B1FEAD102E01D46002DBC
:1002800002D1C0433F4B18601346403B1868072516
:1002900028431860303A10680F27B84308431060AD
:1002A0001868A84302990843186000F0FDF8002E72
:1002B00003D1206801998843206003B0F0BDC04697
:1002C00070B5830ADCB2104B002C0CD08505ED0E06
:1002D000AC40050C0C262E400CA5AD595D192E69BD
:1002E000A64316432E610201520F0BD0C401E40E47
:1002F000A240800E0C24044008A00059C458944326
:100300000C43C45070BDC046100200400000000005
:1003100000000000000000001000000000000000CD
:1003200004000000080000000C00000070B5154932
:1003300000220A60814B1B685B08134C256805404E
:10034000854216D0012B12D0266806400125864230
:1003500010D0022B0BD02668064086420AD0032B11
:1003600005D026680640864204D01B1FE6D1104601
:1003700004E01D460120002D00D070BDD2430A606C
:1003800070BDC046640000205002004010B5430715
:1003900000D511468A691388064CA34205D10A4B41
:1003A00000241C60921C8A6110BD03A000F0E4F9D7
:1003B000FEE7C046ABBE0000202048617264466183
:1003C000756C74210A0000000C00002000207047AA
:1003D00070B5734E5920306016213160882232602A
:1003E0003368002B11D13060316032603368002BEC
:1003F0000BD13060316032603368002B05D1306042
:100400003160326030680028E4D00420FFF7ECFE51
:100410001020FFF78BFF072000242146FFF704FF81
:100420000B4D2846FFF7CEFE032001062846224644
:10043000FFF746FF00F038F8FF20000405490A687E
:1004400082433320400410180860346070BDC046F9
:10045000103D805F3C00004010B50121CA051149E4
:100460000B68134208D00B68134205D00B68134287
:1004700002D00B681342F3D1C3B20A2B0FD10B4643
:10048000183B0D241C600B68134208D00B68134204
:1004900005D00B68134202D00B681342F3D1183910
:1004A000086010BD18000740B0B51D4C2068072536
:1004B0000540216B05200004014201D0002018E016
:1004C000080303D518488A0303D512E015488A03A8
:1004D0000FD4164A0A40921C800850430A04920F17
:1004E00013A39A5C8904C90E891C5143FFF732FE9D
:1004F000800010490860022D02D0A8000E4908585B
:1005000021690F220A40511CFFF724FE0B490860A5
:100510000B4940180B49FFF71DFE0B490860B0BDA1
:10052000100200400048E801001BB700FF01000076
:100530000102020404000020C0070000080000209F
:1005400020A1070040420F000000002010B5144811
:100550005921016016220260882303600468002C80
:1005600011D10160026003600468002C0BD10160AE
:10057000026003600468002C05D101600260036022
:1005800001680029E4D007210905064A13688B4356
:10059000136013680B4313600021016010BDC04657
:1005A0000001004000020040F0B587B00D4604464F
:1005B000534801A94CC84CC14CC84CC15148624970
:1005C0008C4214D0504961180C22D14106294BD8D5
:1005D0007944097949008F4403513E4339555A0003
:1005E000014608390968090F4268130B05E0014606
:1005F00008390968090E4268130A0022226303269B
:10060000E660A668414F3740A76007270F400F26D6
:100610001E40042F0CD0012F53D1416A0520000445
:1006200001424CD1080337D53B4A880337D546E011
:10063000374820180D21C841032802D8FFF7DAFDFA
:1006400001E0FFF7E3FD059004273AE00168090D9A
:100650004269130BD1E70168090F42691309CCE71E
:100660000168090C4269C7E7002626630320E060A1
:10067000A06826490140A160374622E0016843692D
:10068000090EBAE70168090A4269130CB5E7016867
:10069000090B4269130DB0E71E4A88030FD41F48A7
:1006A0000840831C900858430A04920F1C4B9A5C24
:1006B0008904C90E891C5143FFF74CFD8200029248
:1006C0000127002D1AD0B80001A90858711CFFF7A6
:1006D00041FD0646680830182946FFF73BFD801E9D
:1006E000010C07D0E80030182946FFF733FD000958
:1006F000801E02E0032109070843606207B0F0BDD5
:10070000A40700001C02004000F0F8BF0FFFF0FF3C
:100710000000F9BF0048E801001BB700FF0100001E
:10072000BC07000010B50446FFF796FE204610BD3A
:10073000FFF74EFEE12041020348FFF735FF03A01B
:1007400000F01AF8FEE7C0460000074048656C6CF0
:100750006F20576F726C640002E008C8121F08C156
:10076000002AFAD170477047002001E001C1121F32
:10077000002AFBD17047000010B5044601E0FFF7E6
:10078000D1FF2078641C03490028F8D10A20FFF724
:10079000C9FF10BD10000020000000000400000090
:1007A000080000000048E801000000000080000090
:1007B000006CDC0200000000009600000102020450
:1007C0000048E8010080000000D8B805009600004D
:1007D000006CDC020000000000000000006CDC0285
:1007E0000008000000000020100000005807000072
:1007F00010080000100000205802000068070000E8
:100800006000000000D8B80500D8B805010000005D
:04000005000000D522
:00000001FF
